:020000040000FA
:1000000080430020F19A00003D200100DD9A0000AD
:10001000DD9A0000DD9A0000DD9A0000DD9A000004
:10002000000000000000000000000000559C0000DF
:10003000DD9A000000000000ED9B0000DD9A00004A
:10004000D99D0000D99D0000D99D0000D99D0000D8
:10005000D99D0000D99D0000D99D0000D99D0000C8
:10006000D99D0000D99D0000D99D0000D99D0000B8
:10007000D99D0000D99D0000D99D0000D99D0000A8
:10025000D99D0000A9280100D99D0000D99D00006A
:10026000D99D0000D99D000093280100D99D000070
:10027000D99D0000D99D0000D99D0000D99D0000A6
:10028000D99D0000D99D0000D99D0000D99D000096
:10029000D99D0000D99D0000D99D0000D99D000086
:1002A000D99D0000D99D0000D99D0000D99D000076
:1002B000D99D0000D99D0000D99D0000D99D000066
:1002C000D99D0000D99D0000D99D0000D99D000056
:1002D000D99D0000D99D0000D99D0000D99D000046
:1002E000D99D0000D99D0000D99D0000D99D000036
:1002F000D99D0000D99D0000D99D0000D99D000026
:10030000D99D0000D99D0000D99D0000D99D000015
:10031000D99D0000D99D0000D99D0000D99D000005
:10032000D99D0000D99D0000D99D0000D99D0000F5
:10033000D99D0000D99D0000D99D0000D99D0000E5
:10034000D99D0000D99D0000D99D0000D99D0000D5
:10035000D99D0000D99D0000D99D0000D99D0000C5
:10036000D99D0000D99D0000D99D0000D99D0000B5
:10037000D99D0000D99D0000D99D0000D99D0000A5
:10038000D99D0000D99D0000D99D0000D99D000095
:10039000D99D0000D99D0000D99D0000D99D000085
:1003A000D99D0000D99D0000D99D0000D99D000075
:1003B000D99D0000D99D0000D99D0000D99D000065
:1003C000D99D0000D99D0000D99D0000D99D000055
:1003D000D99D00007D280100D99D0000D99D000015
:1003E000D99D0000D99D0000D99D0000D99D000035
:1003F000D99D0000D99D0000D99D0000D99D000025
:10040000D99D0000D99D0000D99D0000D99D000014
:10041000D99D0000D99D0000D99D0000D99D000004
:10042000D99D0000D99D0000D99D0000D99D0000F4
:10043000D99D0000D99D0000D99D0000D99D0000E4
:10044000D99D0000D99D0000D99D0000D99D0000D4
:10045000D99D0000D99D0000D99D0000D99D0000C4
:10046000D99D0000D99D0000D99D0000D99D0000B4
:0C047000D99D0000D99D0000D99D00001E
:10048000064A074B9B7802604FF49072C371FF23BA
:100490008280082203728271704700BF5B74000083
:1004A00040050020F8B5C41D0028054624F00704C7
:1004B0000CBF0020204600F0EFFA071E02DA6FF0B2
:1004C0000B00F8BD0DB9FC42F9D4294E3189F088F2
:1004D0000331F37A0330B27A89B280B206F017F9A9
:1004E0000028ECDB3C4431787378002D04F10304E0
:1004F000194424F0030400FB01F10CBF0020204646
:1005000000F054FC20440DB90028D8DBB278034633
:10051000B2B1F17CF37811441944FF29CFDC0330E8
:10052000002DF289C9B220F003040CBF0020204640
:1005300000F092FC031EC2DB23440DB9002BBEDB8E
:10054000317C81B1B27872B10733002D23F00704FA
:100550000CBF0020204601F025FE031EAFDB234424
:100560000DB9002BABDB002D0CBF18460020A8E70F
:10057000400500201FB572B6194BDD6AE5B9BFF31F
:100580004F8F1849184BCA6802F4E0621343CB60DE
:10059000BFF34F8F00BFFDE7B4FBF6F4D3B20132D7
:1005A000002CF9D103F110026A4402F80C4C0A2223
:1005B00033B901A8A847E2E7044600220A26EDE77E
:1005C000013BDBB203F110040DEB0406B0FBF2F4C7
:1005D00002FB1400303006F80C0C2046E8E700BFA0
:1005E0004005002000ED00E00400FA050C4B07B5C3
:1005F000DA7A68468DF801209A7A8DF800201A89F7
:10060000DB88ADF80420ADF8023001F0BFF818B176
:10061000E8219C20FFF7AEFF03B05DF804FB00BFAC
:100620004005002038B5054668B305F039FB10B920
:100630004FF0FF3038BD04F06FF8B0F5FA7FF7D80F
:10064000134C1448E562002500F0A2F92A2229463D
:10065000204684F8305007F0F1FA01236370A3704C
:100660001B23E380238140F2032363811F23E38163
:1006700008232374EFF3108472B600F0C3FC2CB986
:1006800062B62046D6E76FF01500D3E72846D1E7DB
:1006900040050020ED05000010B5002842D1244C93
:1006A00094F83030032B3AD059B1002A3DD00239AA
:1006B000052937D8DFE801F0031428362B2E1378EC
:1006C00063700020FFF7EEFE0028B7BF012302236E
:1006D0006FF00B0084F83030A8BF84F8303010BDC4
:1006E000137913B3537903B31188FB291DD81A2941
:1006F00053881AD91B3BE02B17D813689288C4F88B
:1007000006300C4B9A80DCE71378A370D9E7138886
:10071000E381D6E71388FF2B07D82374D1E74FF086
:10072000FF30DCE76FF02C00D9E76FF01500D6E75B
:100730004005002046050020F8B50D46064630B3BA
:1007400029B311F0070422D1124F97F83030012B52
:1007500002D16FF00B00F8BD032B02D14FF0FF3038
:10076000F9E700F05FF80028F8D02846FFF79AFE76
:100770000028EEDB07F03CF83046214601F04AF84D
:10078000FFF734FF0323204687F83030E3E76FF0AC
:100790001500E0E74005002010B5074C94F8303014
:1007A000032B03D101F04EF801F028FC06F0A5F868
:1007B000002084F8300010BD4005002050B1074BE8
:1007C00003F1140253F8041B934240F8041BF9D1BF
:1007D000002070476FF01500704700BF5C440100B7
:1007E000074B10B593F830403CB900F0F9FF0120F9
:1007F000044900F049F9204610BD4FF0FF30FBE7F7
:10080000400500208104000002680020014B1A60AE
:10081000704700BF74050020014B1B68184700BFDC
:1008200074050020024B1868003818BF012070477B
:10083000740500202DE9F7430446264E071D254880
:10084000376001F0EBFB0228054607D1214920461D
:1008500005F09AFC284603B0BDE8F0830428F9D1DE
:100860003378072B18D13E2000F04AF878B9F37896
:1008700001A93279684643EA0223ADF8003005F059
:100880009EFE0028DBD053210820FFF773FE0520D1
:1008900000F06EF80028EAD03146204605F0ACFCA6
:1008A000B0F5817F01D37221EEE70028C7D094F81C
:1008B000008094F80290404600F022F80028BED054
:1008C000B8F13E0FC6D1484600F052F80028C1D119
:1008D000B5E700BF78050020074B4FF0FF3141F628
:1008E000FF72C3E9001205490022C1E900221F215D
:1008F000C3E90212704700BF40000020BC05002081
:100900003F280CD801380B4BC0F3421200F01F00F7
:1009100053F8223023FA00F000F001007047FF285E
:1009200006D04038044BC0F3421200F01F00EFE73E
:100930000120704740000020BC050020074B014605
:10094000006849681A4603C240F48C221A6041F0DC
:10095000107242F4FF625A60704700BF40000020EE
:100960000246024B0068516803C3704748000020EC
:100970000138064BC0F3421200F01F0003EB820364
:100980009B6823FA00F000F001007047400000204F
:10099000014B1860704700BFC405002010B5FFF779
:1009A0009BFF06F089F9034B04461B6803B1984787
:1009B000204610BDC405002070B50C88C27CA6B2CC
:1009C000C4F30E04931C058804F118021D44825AD6
:1009D000ADB21A4443882A44013AB2FBF5F202FB55
:1009E000054292B29342044B8BBF3340B34313434F
:1009F0009BB20B8070BD00BF0080FFFF4A1E062A1D
:100A000008B50346084604D84FF4D1711520FFF706
:100A1000B1FD094A914202D940F2A311F6E711B99A
:100A200003B1196008BD2BB11B680022C3E9012185
:100A30001A1D1A600430F5E7FAFFFF7F10B5114B5D
:100A400000EB41041A786389B3FBF2F303FB022342
:100A5000013A1A44B2F5706F027928BF00231A4494
:100A60008378B2FBF3F0194403FB1020091AB1FBA1
:100A7000F3F003FB101313446FEA43436FEA53434D
:100A8000638110BDC8050020024B03EB8003596051
:100A9000704700BFC80500202DE9F04F10F0070A8D
:100AA00085B0054604D040F261111720FFF762FDC2
:100AB000544F04464FF0010B07F10C06B146B04607
:100AC00057F8043B8DF80BA03BB101A898479DF85F
:100AD0000A30082B01D9E821E7E79DF80B1081BB0C
:100AE00005B13160B94506F10406E9D12DB3002303
:100AF000DFF814E102221E468EF8003058F822007A
:100B0000013A60B190F804A08178BAF1FF0F64D186
:100B10004FF000078E4207713CBFCEB20123511C3B
:100B2000ECD10BB18EF80060022640F6FF6A58F84F
:100B30002670002F63D1013EF9D2601B05B0BDE8DD
:100B4000F08F9DF80AC04A1DBCF1020FE64604EB87
:100B5000420438BF4FF0020E53000EF1FF30044440
:100B6000CEF100002040BDF808406444CCF1000CF8
:100B7000013C04EA0C04B4F5803F01D3F82194E76A
:100B800075B1C31A336099701C8083F803B09DF867
:100B90000C201A71019A4FEA124C1A81A3F806C070
:100BA00004FB01049EE758F82C90B9F1000F06D021
:100BB00099F804B0D34504BF99F802904F440CF162
:100BC000FF3CBCF1000FEEDA3944FF29A2D90BB18A
:100BD0008EF8006040F2271167E794460027F0E79F
:100BE00007EB410309F101093846A3F80AA0FFF712
:100BF00025FF5FFA89F1BB788B42F1D89BE74FF074
:100C00000009F6E7CC050020C8050020F8B54FF62E
:100C1000FF7305460380184B03EB81031869B8B1D5
:100C200086780379B3FBF6F206FB1233DBB2194682
:100C30000A1D00EB4202B2F902705488002F09DB52
:100C40000131B1FBF6F206FB1211C9B28B42EFD1B2
:100C50000020F8BDFF29FBD0C4F30E03C4782B801D
:100C600024B94FF4D5711720FFF784FC5380BDE8F9
:100C7000F84005F02BBD00BFC80500201D4B03EB5D
:100C8000810370B51C69054644B3030404D54FF4D1
:100C9000DC711720FFF76EFC0146204605F0F9FCD9
:100CA000FF28014604D02046BDE8704005F00EBD87
:100CB000A078B5FBF0F300FB1353DBB219460A1D15
:100CC00004EB4206B6F90260002E09DB0131B1FBEC
:100CD000F0F200FB1211C9B28B42F0D1002070BDBE
:100CE000FF29FBD08B4204EB42021CBF0023E370C0
:100CF0005580D8E7C8050020094B03EB8103014666
:100D000010B51C69204605F0C4FCFF28014604D03C
:100D10002046BDE8104005F0D9BC002010BD00BF42
:100D2000C8050020F8B5104B074603EB81030146C8
:100D30001C69204605F0ADFCFF28054611D0E68869
:100D4000238953EA064606D00146204605F0BEFC3C
:100D500001463846B04720462946FFF76FFE00207F
:100D6000F8BD0520FCE700BFC805002038B50E4BD4
:100D70000446827903EB8203186908B9052038BD5F
:100D80008278E1799142F9D24B1CE37100EB410387
:100D90005D89B3F90A30002BF3DBA58005F096FCE2
:100DA00020600020EBE700BFC805002070B50446B6
:100DB00010F003000E4603D04E211820FFF7DAFB97
:100DC000FFF71CFE054624B1034831460460FFF7D7
:100DD00015FE284670BD00BFE40500202DE9F14F47
:100DE000DFF870B01E4607460D46DBF8003090462F
:100DF0009DF828A09DF82C901BB960211820FFF7C2
:100E0000B9FB52460921404605F002FC4A4684B22D
:100E10000921304605F0FCFB81B2DBF800002144DB
:100E200005F013FC386018B9286001B0BDE8F08FF8
:100E300004445346414609222C60386805F0C7FB3C
:100E40004B4609223146286801B0BDE8F04F05F055
:100E5000BEBB00BFE40500201F2AF8B504461346B8
:100E60000ED89200033222F00303B3F5803F2DD257
:100E7000184DACB1A00710D05F210920FFF77AFB15
:100E8000FF2B4FEA420204D9FF339A42A8BF1A4609
:100E9000E8E77C2AB8BF7C22E4E729706C602B81EC
:100EA00022F0030228230127120403FB01F06B68E0
:100EB0000025120CEEB28E4200D3F8BD14B12618F4
:100EC0001F705E60104401352833F3E74FF0FF30A8
:100ED000F3E700BFE8050020144A002138B5536845
:100EE0001478C8B2844203D8AB210920FFF742FB33
:100EF0001846013128330578002DF2D00021817089
:100F0000012412898161051D44709208C16100F1BC
:100F10002001446821F8022B994245F8044B1444FF
:100F2000F8D100234361037038BD00BFE8050020FD
:100F30002DE9F8434B7880460C4602F0040602F097
:100F4000FB07D3B1DFB12E4BD4F804901D89B7BB9A
:100F50000123AD084A46211D637004F1280004F105
:100F60002003A761E76123F8025B984241F8042B54
:100F70002A44F8D10023636101E0002FE3D0FF236E
:100F8000A370002E18BF0226A3191B7D032B03D1CB
:100F9000022F1CBF0136F6B2A31901221A7506F101
:100FA0000C02002304EB860624F812307268A3704A
:100FB0004046C8F80020A8F80430BDE8F8830021B6
:100FC00014226170A01806F039FEB5F5FF7F0FD22C
:100FD0006B08ED1AADB209EB0502C4F80490258444
:100FE000A2606384C4F80C90A5842261E384C6E700
:100FF000B5F5EE6F4FF0FF03EBD940F27265EAE70B
:10100000E80500201E4B01224FF0FF3000211B6835
:101010005A60C3F80803C3F80015C3F80425194B38
:101020001B685A60C3F80803C3F8001540F6FE7148
:10103000154B1648C3F8081501680BB2002B0BDBE3
:1010400001F01F015B098A402033114941F8232038
:10105000BFF34F8FBFF36F8F026813B2002B09DB12
:1010600001215B0902F01F02603301FA02F2084914
:1010700041F82320044B40F6FE72C3F80825704760
:1010800084110020801100200020085098110020B9
:1010900000E100E0014B1876704700BFF805002022
:1010A0002DE9F04104460D46164690F8F03003F065
:1010B000FF071BB10C273846BDE8F08101464548C3
:1010C00004F084F920288046F4D05822394604F1EF
:1010D000C80006F0B3FD84F8C880C4F8CC50FF23E4
:1010E00084F8F03035B100F0E7FF00F00700013080
:1010F00085F8CC0102234FF00008A4F8003184F8F1
:10110000F88003F013FB00F14905204606F08CFA45
:101110000146ADB270B306F01DF800F5CD61304662
:1011200089B203F0ADFA3044AE3EC4F8FC0006F0DC
:1011300008FC2818A4F8268041F10001C4E9420106
:10114000012084F8D00006F025FB361AC4F8D460DC
:101150004FF0FF326FF00043C4E9442304F1F8017B
:1011600094F8C80004F0CCF948BB40F2CD1130200F
:10117000FFF700FA2046DFF8608006F078F9AE301D
:10118000C4F8FC00B8F8040048B1E08C38B100F0B5
:1011900093FFB8F80430B0FBF3F202FB13000544F0
:1011A00006F0CFFB2D1841F10001C4E94251002E99
:1011B000CED0751941F10001C4E94451CEE7D4E91C
:1011C000422300212046C4E93823C4E93A2306F02B
:1011D00048FA70E74B690000B4060020F0B5002320
:1011E00085B0CDE9003301238DF806306846FFF75E
:1011F000BDFD70B11D4E01230027B371CDE902770B
:1012000002A8FFF7B3FD0546C8B10023B37105B0CE
:10121000F0BD009805F053FCE8E790F8F30104F006
:1012200063FA94F8F30104F00BFC94F8F30184F8EA
:10123000DC5104F0F1F8202384F8F331DEE7029B5F
:10124000002BDDD093F8F321202AD9D018884FF64F
:10125000FF739842D9D02946FFF74EFD0446002877
:10126000DBD14FF49B713020FFF784F9B4060020E6
:10127000044B0022DA719A7142F210729A80FFF7E1
:10128000ADBF00BFB4060020014BD871704700BF4E
:10129000B4060020014B9880704700BFB4060020C0
:1012A00010B501210020FFF727FD044670B9012188
:1012B000FFF7E4FC044620B940F291313920FFF7F2
:1012C00059F9034B93F9061006F099F8204610BD22
:1012D000C006002008B505F03FFF00F033FC00F029
:1012E000D3FA05F0F9FF00F087FD00F06DFF002252
:1012F000084B1B214FF4A4701A60074B98801A808A
:1013000059800648064B186099805A745A829A820E
:101310009A7508BD88000020C006002003021B004B
:10132000EC0A0020044B41F64C52C3E902221B2276
:101330001A74FFF7CFBF00BFEC0A00202DE9FF4170
:10134000344D0446AB680363334B836105F0EEFB19
:10135000064600F089FA2B7C10F0200F668784F88F
:1013600038302E4B0EBF1B22AA8869881B6814BF19
:10137000A4F85A10A4F85A20A4F85C201BB194F9E0
:10138000701020889847AE7CEF7CB5F8148016B9B1
:1013900000F070FA064687BB00F06CFA074676B399
:1013A00068B303A920468DF80C608DF80D70ADF878
:1013B0000E8005F011FF012369786A8804F110009E
:1013C000E385AB88033201910333297892B29BB253
:1013D000009104F11401FFF701FD236913B940F2F4
:1013E0004E6114E0636913B940F24F610FE00020D1
:1013F00004B0BDE8F0810920FAE7002ED1D1002128
:101400002088FFF78FFC0028F5D040F224613920B6
:10141000FFF7B0F8EC0A002000093D008C00002026
:10142000F7B505460E4606F01DF8002874D028468C
:1014300006F0FAF840B1B6F80130013B7F2B03D932
:101440001224204603B0F0BD284606F0F1F808B992
:101450000C24F6E7284605F0B5FB0028F8D128460D
:1014600005F0BEFF04460028F2D1284601F02AFA12
:101470000028E5D042F21073B6F80170F1782846E2
:101480005F4306F0BDF8284606F0C6F8014658B995
:101490003A462846FFF704FE04460028D1D041F61C
:1014A0009F313920FFF766F821460DF10600FFF75E
:1014B000ADFB064670B3214600F038FCBDF806309F
:1014C00028463146338006F0BDF8284606F0B6F8C7
:1014D000A0B9296A284606F0B3F801463046FFF75E
:1014E0002DFF04460028ACD13A4631462846FFF786
:1014F000D7FD044620B141F6C231D2E70121EDE724
:10150000064B9B68002B9CD0024606F58D71304639
:10151000984796E70D2494E7422492E7C0060020FE
:10152000034B5A8802801B7883700020704700BFED
:10153000EC0A0020F0B5077885B004460D46EF2F81
:1015400003D91225284605B0F0BDB0F80130ADF83A
:101550000C309DF90C209DF80C30002AF1DB9DF831
:101560000D209207EDD1DE063FD4980603F003026A
:1015700038D5002AE5D11907E3D463781A0711D4C6
:101580002179E278E07942EA0122617942EA014276
:10159000A17941EA0021207A41EA00418A42D0D86B
:1015A0001F2ACED9627A013A062ACAD8A27A032A19
:1015B000C7D813F0040102D1023A012A03D8E27A13
:1015C000012ABED811B9A27C032ABAD813F010019F
:1015D000227D19D0012AB4D1227E012AB1D8B1B915
:1015E0001125AFE7032AC6D1ABE713F0600FA8D1EE
:1015F00003F00F0203F00703052BBED0931E012B4F
:10160000BBD9002A9DD1B8E7022AE5D199E7DB07CB
:1016100013D46378227D03F01803082B12D1022A19
:10162000DED1BFB201213846FFF766FB064678B12E
:1016300005F0C8FAB8B10C2584E700F0E5F80028F9
:10164000E7D1CDE7022AECD0237F002BE9D0C7E712
:1016500001213846FFF712FB064650B3164B93F9AB
:10166000061005F0CCFE304605F0D3FF2146287069
:10167000E074304605F017FFE37E0546002B3FF48B
:1016800061AF00287FF45EAF0246316B6846FFF71A
:101690004FFC2A46306B012105F081F8316B68461A
:1016A0000422FFF745FC2A462946306B05F077F8FF
:1016B00048E7072546E700BFC006002070B505795A
:1016C0008AB00346042D5CD84488B4F5804F58D8BE
:1016D0002D480021465D2844ADF800104279857AF6
:1016E00042F01002C07B8DF8081042EA46028DF8E5
:1016F0001D1042EA850242EAC00202F01F028DF884
:101700000020BDF80020ADF809201A888DF80E40A1
:10171000240A8DF80B20120A8DF80D108DF8101088
:101720008DF80C208DF80F405A7BD3F807008DF808
:1017300011205A79059002A88DF812209A798DF817
:101740001320B3F80B209B7BADF818208DF81A30CE
:101750007F238DF81B3001238DF81C308DF81E304F
:101760008DF81F108DF820108DF823108DF824109F
:101770008DF821108DF822106946FFF7DBFE0AB0C4
:1017800070BD1220FBE700BF8844010002780346C9
:1017900072B1427862B142881A2A09D982881A2A1B
:1017A00006D90068034A106000209B889380704728
:1017B00012207047EC0A002002680020014B9A605A
:1017C000704700BFEC0A002008B501F073F8FFF77E
:1017D0004FFD0248BDE8084001F056B8CC06002095
:1017E00010B5064C064904F5027005F095FC04F5A9
:1017F00003700449BDE8104005F08EBCCC06002003
:101800009000002098000020014B93F802017047DF
:10181000CC06002010B5074C00F0DCFBD4F8080221
:1018200005F072FCFFF77EFD00F05EFC012384F8FA
:10183000143210BDCC060020014B93F814027047FF
:10184000CC06002010B5074CD4F80C0205F05CFC67
:10185000D4F8100205F058FCFFF73CFD002384F893
:10186000143210BDCC060020014BD3E900017047B3
:1018700050000020034B1868C0F30020400040F0E7
:10188000010070475000002008B502F045FF00231A
:10189000074A32F82310814205D302EB83039B7879
:1018A000044A137008BD01330C2BF2D10023F7E773
:1018B0009C440100E1080020054B9A8C824201BF44
:1018C000002283F822204FF6FF729A84704700BFEF
:1018D000E208002050B90A4A0120134603F8010B20
:1018E0000868C2F801008A889A807047012805D1EB
:1018F000034B0A68D8719A608A889A81704700BF42
:101900000C09002048B90A4B187880B1D3F801209F
:10191000B3F805300A608B807047012806D1044B6C
:10192000D87920B19A689B890A60F4E70020704753
:101930000C09002020B9054B187800F00100704711
:1019400001280ABF014B0020D879F6E70C090020D6
:10195000F7B58B8800228DF80600ADF804300868D2
:101960000B4B8DF8072001461C7803F5AC73019DE5
:10197000D0B2844201D8082007E0D3E900760132D2
:101980000833AE4208BF8F42F2D103B0F0BD00BFB2
:1019900020090020084B0146002230B55C7803F591
:1019A0008173D0B2844201D8082004E013F8015BAF
:1019B00001328D42F5D130BD20090020F0B5254D12
:1019C00089B095F8984105F299116846224604F0CD
:1019D0003BFB2146684605F0DEFB0446B8B300EB4E
:1019E000400102A8C9B2FEF717FF601E95F8A16179
:1019F0000124C0B295F8982105E0731CB3FBF2F105
:101A000002FB1133DEB206F120030DEB030111F8E6
:101A1000203C002BF1D100EB400201F8204C06EBFA
:101A2000460320322B446A4412F8187C83F8A271D2
:101A300012F8177C12F8162C83F8A37183F8A421EE
:101A40000138AB19C0B283F89941FF28D2D109B04F
:101A5000F0BD00BF2009002070B5064688B00C46D6
:101A6000002A4ED0294A92F8A131D01890F8991145
:101A700019B9FF212820FEF77DFD03EB4301013357
:101A8000114491F8A251E57091F8A35191F8A41175
:101A900025716171002180F8991192F89811B3FBBA
:101AA000F1F001FB103382F8A13192F8C23123B971
:101AB000174902F5DD7005F031FC65790D22002132
:101AC000684605F03F0545F04005657106F0B6F83B
:101AD000E37804AA69468DF80F30304623798DF8F3
:101AE0000D508DF80E30042305F0F4FF9DF81F30E3
:101AF00023709DF81E3063709DF81D30A37008B0F0
:101B000070BD03216018FEF787FED6E7200900208C
:101B1000BD190000044B5A78824286BF1B1893F807
:101B20004A010020704700BF20090020044B5A786A
:101B3000824286BF1B1893F842010020704700BF05
:101B400020090020064B00224FF461711A8083F8AF
:101B5000C32183F8C421A3F8C61183F8C2217047BA
:101B600020090020014B83F8C401704720090020A0
:101B7000014BB3F8C6017047200900200A4B30B56D
:101B80005C7884420ED9184490F802012B3003EBA4
:101B9000C004A5790D7053F8300010600120A388AF
:101BA000938030BD0020FCE7200900200246074852
:101BB00010B590F8C34124B1417821B1023001F051
:101BC00023F8204610BD0C46FBE700BF200900208B
:101BD0002DE9F74F2F4C9A46804689466378834219
:101BE00056D9231893F8425185F00105F9B193F8BD
:101BF0004A31E3B945F002070135BAF1000F18D1B7
:101C0000FA070AD5062104EB0810524601FB0841E9
:101C1000823001F58571FFF71FFFBB0734D504EB58
:101C20000810524649460230FFF716FF2CE02F46B7
:101C3000E3E794F8A1614FF0010B002DE0D0A31968
:101C400093F89911019399B90092DAB100F01CFA56
:101C5000019B06EB4601009A4FEA102C83F899B1DC
:101C6000214481F8A201000C81F8A3C181F8A401EC
:101C7000013694F89831013DB6FBF3F103FB116690
:101C8000F6B2DAE747F00407384603B0BDE8F08F54
:101C90000027F9E720090020074B5A78824209D92A
:101CA0001A1892F842212AB9062202FB003000F5E8
:101CB000857070470020704720090020064B5A7835
:101CC000824281BF1B1893F83A01B0FA80F04009B4
:101CD00098BF0020704700BF2009002030B50024C5
:101CE00042F21075A0F84040B0F844404C43B4FBB9
:101CF000F2F4A0F84440541E05FB0343B3FBF2F397
:101D0000A0F84230084BB3FBF2F30133A0F848309F
:101D1000838F05FB0344436B5943B4FBF2F4B1FBDF
:101D2000F2F28463426330BD005A620270B5044629
:101D30000D4659BB4FF41A7205F080FF012384F859
:101D4000DE5084F88E306FF0360384F8D9300423E7
:101D500084F8DA306FF03B0384F8DB306F2384F8CB
:101D6000DC306FF03C0384F8DD306FF07F0384F8E3
:101D7000DF302B2384F8D830FE2384F80E317F2304
:101D800084F88530202384F8F33170BD012917D100
:101D90000023A0F8B43180F8AB310D4B82691344B5
:101DA0001146B3FBF2F3C0F8B03040F6B833A0F8F8
:101DB000B430438C04F17800BDE87040FFF78EBF6B
:101DC0000229E2D1B0F84A32D0F844228169F1E721
:101DD0007FC3C901074B93F900301844142804DC71
:101DE00010F17F0F03DB40B27047142070476FF093
:101DF0007E007047E80A0020024B00221A705A70D9
:101E0000704700BFE80A002083230B70014B1B784A
:101E1000CB707047040B00202DE9F34782468946BA
:101E200005270025DFF84C81D9F8103053B11B7A13
:101E30001BB980211020FEF79DFBD9F81040B4B9E2
:101E4000002070E0D9F80440237A012BF8D0EFF39A
:101E5000108372B6D9F804201268C9F8042003B9B7
:101E600062B6C9F81040237A0BB9A621E2E7267AB8
:101E7000F6B22772731E0B2B69D8DFE803F06506F4
:101E80001C3362683C6868686857636813B94FF42C
:101E9000D771CFE72046514698470420EFF31083CF
:101EA00072B6227A052AD1B25BD12572C9F81050D8
:101EB000ABB962B613E0636813B940F2B711B9E782
:101EC0005146204698470346ADF80400C0B2C3F31C
:101ED0000723012B3ED0022BE0D1C9F81050002877
:101EE000A2D020E0636813B940F2BF11A2E72046F8
:101EF00098470020D2E763680BB9B5219AE70B2217
:101F000000248AF800200122198818698AF8022022
:101F1000AAF803108AF805208AF8064004F08BFB23
:101F20000420C9F8104002B0BDE8F087D8F80030AE
:101F3000514620469847034660B10220C9F8105028
:101F4000F1E74FF4FB7175E740F2F91172E74FF4D6
:101F5000FE716FE726720028E5D1002B7FF464AF95
:101F60006EE711B940F21D2164E7002B7FF45CAFEE
:101F700062B659E7A400002070B5144C1426002165
:101F8000231D3246184605F059FE034601252574E7
:101F900004333246002104F11800C4E9013305F08E
:101FA0004DFE84F8245004F11C03094AC4E90633A9
:101FB0000023E362236384F83430C4F83530C4F876
:101FC000393084F83D30136070BD00BF040B002031
:101FD000A000002010B5084C2378FF2B04D04FF44C
:101FE000A0711020FEF7C6FA03F036FF2070BDE89E
:101FF0001040FFF7C1BF00BF5D00002010B5034CCB
:10200000207803F045FFFF23237010BD5D00002002
:10201000014B187803F04CBF5D00002010B5064955
:102020000446FFF7F9FE28B920460449BDE81040F0
:10203000FFF7F2BE10BD00BF1C0B0020080B0020F4
:10204000134610B5027A22B140F299211020FEF712
:1020500091FA0A4601460248BDE8104005F03EB933
:10206000080B00200346064890F83E203AB190F84D
:102070003D2022B9034900F8353B05F04CB97047C3
:10208000040B0020091E0000094AD2E90003434066
:1020900083EAB01181EA43214FEAF34311605360B0
:1020A000044B58434FEAF06000EB8000704700BFDC
:1020B000440B0020BB79379E094AD2E90003434014
:1020C00083EAB01181EA43214FEAF3431160536080
:1020D000044B58434FEAF06000EB8000704700BFAC
:1020E00060000020BB79379E10B50A4C08210948D2
:1020F000FEF792FBD4E900231343F7D0064CFFF719
:10210000DBFF2060FFF7D8FF236860600343F6D051
:1021100010BD00BF60000020440B0020F0B5204E31
:10212000054600243078147080B1431E7768DBB216
:10213000181B01280BDC07EBC40057F8346040681B
:10214000884208BFAE4212D114700120F0BD1819A8
:102150004610C0F3470057F836C007EBC60EAC4533
:10216000DEF804608E412CBF03460446E0E7B5422A
:1021700071EB000002D214700020E7E707EBC30008
:1021800057F833404068884208BFAC4201D1137011
:10219000DBE7A542814128BF01331370ECE700BFA4
:1021A0006C0B002010F0070208B503D06321482013
:1021B000FEF7E0F918B1034B197258601A70C800A5
:1021C00008BD00BF6C0B0020014B00221A70704745
:1021D0006C0B0020014B187A704700BF6C0B00207D
:1021E0002DE9D34305F0ACF80DF1070207460E4682
:1021F000FFF794FF98B9114C2278237A93420ED0BE
:10220000616813466FF0604E9DF80700984209D34D
:1022100001EBC003013201202270C3E9007602B055
:10222000BDE8D08303EB0E00013B01EBC000DBB245
:10223000D0E90089C0E90289E6E700BF6C0B002005
:1022400037B505F07DF80DF10702FFF767FF04468B
:10225000A0B10C4A9DF8070013785568411C013B5A
:1022600005EBC101DBB213701A1AD2B2D20083425D
:1022700038BF002205EBC00005F0C8FC204603B0C3
:1022800030BD00BF6C0B00200346074A1068D3F82E
:102290005120C0F80320B3F85520A0F8072093F888
:1022A000501004F09DBF00BF940B002070B5044691
:1022B0000E461346407F6588324615F0040118BF6C
:1022C00004F15F01FFF784FC4207054623D4C307EE
:1022D0000BD50123607F84F85030FFF7DDFC0368E5
:1022E000C4F851308388A4F8553015F0020F4FF030
:1022F00001050ED0094B294684F85E501868D4F8C1
:102300005F30C0F80930B4F86330A0F80D3004F045
:1023100070FF284600E0002070BD00BF940B002035
:1023200038B5C38D04460F4D0133C3F30E03C38587
:10233000AB7C2BB101F02EFA00F0C4FC0023AB748F
:1023400000232B7194F871302BB101212046BDE898
:10235000384004F0F7BB637C13B1E28D9A42F4D2AB
:102360000021F3E7940B002010B5094C2379012BD1
:1023700002D02379022B05D1A37C1BB101F00AFA0C
:1023800000F0A0FCE069BDE81040FFF7C9BF00BF46
:10239000940B002070B5294C2379012B07D02379A9
:1023A000022B04D040F657412D20FEF7E3F8A0B9E8
:1023B0000125A37C1BB101F0EDF900F083FC002D99
:1023C0003AD0E06904F0A0FB002830D001F0E0F83A
:1023D000236ABDE870409B6818472168E26911F8DC
:1023E000095B02F1510392F85020E80904F0B5FEB0
:1023F0000028DDD00021206804F020FF0028D7D07D
:102400002379E069012B05D02379022B02D04FF408
:102410004361C9E7237905F00F01226A03F1804384
:102420005269013B52F8233098470546C1E7E069FD
:10243000BDE87040FFF774BF70BD00BF940B002073
:102440000346074AD06903B909B9FFF769BF137991
:10245000126A03F180431269033B52F82330184794
:10246000940B002003292DE9F043054685B09046E2
:102470007BD090F870300529DBB202D14288D607B4
:1024800060D5002B5ED10127DFF8E89099F8126043
:10249000B6B104F097FE082888F8000014D002AA0C
:1024A0000DF10701FFF76AFB20B940F6CF612D203F
:1024B000FEF760F802A99DF8070004F04DFF0646FC
:1024C00098F80030082B08D1D9F8001011F8030B48
:1024D000C0F3801004F040FF0646D9F8001005F163
:1024E000580395F8572011F8030BC0F3801004F03F
:1024F00034FED9F80010044611F8030BC0F3801025
:1025000004F056FE8146FFF7D9FB014640B1B9F110
:10251000080F1BD04846FFF7FDFA80F00101C9B251
:1025200098F80000082815D094B96B7F1C1A6042F7
:1025300060416B885A0706D421B996B9EB7C93B1F8
:10254000BB4210D0002005B0BDE8F0830021E7E7D2
:102550000120EEE714B181F00104E4B204F00100BF
:10256000E7E73046EFE70120EDE743889B07E9D531
:10257000022789E7940B0020032973B5044604D091
:10258000052956D0012002B070BD08230DF10702C5
:102590008DF80730FFF766FF0028F3D0237C2A4D23
:1025A00003B39DF8070094F8BE30DBB92378082800
:1025B00004F1C10284F8BF302CD004F1C001FFF750
:1025C000DDFA20B940F645712D20FDF7D3FF94F8D0
:1025D000C03043F0020384F8C0301C4904F1B60057
:1025E00004F099FE2B680622042620465A701E70BD
:1025F000FFF74AFE94F84020E16B286804F00FFED4
:1026000028682E7101F07CF82868002105F00DF98A
:102610000020B8E72868034613F8031BC1F38011B4
:1026200084F8C010D0F80310C4F8C1109B889380C0
:10263000D3E7074B1B6823B1984780F00100C0B275
:10264000A1E718469FE700BF940B00206D730000C0
:10265000A8000020F8B504460F4619B300F128057C
:10266000284605F074F8A0B963881A072ED52846C5
:1026700005F082F80646284605F069F8301AC0B21F
:1026800005F088F8494A936803442846936005F0AA
:102690003DF8284605F03FF800F0D8FE21792520C6
:1026A00000F038FE414E002394F85E20306803703D
:1026B00043706388103B0D2B68D8DFE803F0636735
:1026C0005F0C674467676767676767442046BDE8D4
:1026D000F840FFF725BE06234370202303702046F1
:1026E000FFF7D2FD638823F008039BB2152B05D0BA
:1026F00094F83820616B306804F082FD306800F097
:10270000FFFF0021306805F090F8032321790020B5
:10271000337100F0C7FE054607B9F06063881B07F8
:1027200004D505F034F80544C4F8D8506388103B4C
:102730000D2B36D8DFE803F038352F2F352F353500
:1027400035353535352F0C2321214370034603F8E9
:10275000091B52B1D4F85F200121C0F80920B4F858
:1027600063209A8004F045FDB9E7A26DC0F8092006
:10277000B4F85C209A8094F85710F3E706230370AE
:102780004370ACE7022303700623F9E740F234619B
:102790002D20FDF7EFFE21790120BDE8F84001F082
:1027A00007B840F6CA41F3E7F8BD00BF940B00201C
:1027B00038B543880446102B04D10121BDE83840C8
:1027C000FFF748BF0B4DAB7C23B100F04FFA402020
:1027D00000F0D4FF286800F093FF608810F0040038
:1027E00002D1217900F0E4FF002000F0A3FF0123D3
:1027F0002B7138BD940B0020024B0121D869FFF7E3
:1028000029BF00BF940B002010B5134CA37C1BB153
:1028100000F0C0FF00F056FAE06904F075F970B1FD
:102820002379E069012B0FD12379226A03F18043D8
:10283000D268013BBDE8104052F823301847E069E8
:10284000BDE81040FFF76CBD2379022BECD040F6B9
:1028500058312D20FDF78EFE940B0020094810B54D
:10286000037903F0FF0453B918222146043005F020
:10287000E5F900F08FFF00F025FA204610BD0C248A
:10288000FBE700BF940B002010B50023084C237118
:102890002060FFF7E3FF20B140F2EF212D20FDF78C
:1028A00069FE236A13B940F2F221F7E710BD00BFB9
:1028B000940B0020014B024A1A627047940B0020CF
:1028C0007C2B00002DE9F041067D0446B31EDBB2EF
:1028D000012B8CBF4FF000084FF001087EB3B71EEC
:1028E00018BF0127012B36D800F1580190F8570086
:1028F00004F05EFC082805462DD0FFF717F958BBF9
:10290000657784F81C8084F85070FFF731F905462C
:1029100005F017F8174B0022A5FB033584F85E205D
:102920001B18204645EB01051146C4E91235FFF797
:10293000BDFC70B940F27A412D20FDF71BFE3746F1
:10294000082504F151010020FEF7DCFF0028D7D153
:102950000020BDE8F0810825022EF2D0E37E002B96
:10296000F6D0D4F81530C4F85130B4F81930A4F8C2
:102970005530C5E740420F00F0B5484E85B00446DB
:10298000327902F0FF0312B90278FF2A04D140F62F
:10299000B7112D20FDF7EEFD3382B3607371B37173
:1029A00080F871303E4B684604F1280500933D4B9A
:1029B00001933D4B0293336A5B68039300F098FEEA
:1029C00000F0DAFC00F0E6FE00F07CF9374800F099
:1029D00033FD374800F086FE284604F097FE28466F
:1029E00004F099FE00F032FD2179252000F092FCE0
:1029F00094F9120000F01AFD04F13401206B03F089
:102A0000EBFE074604F13C01206B03F00CFF05468A
:102A1000E7B194F82430CBB1B4F92E50ED43ED0F6B
:102A2000237F13B963885B0709D56FF00043D4E9AE
:102A300012129A4208BFB1F1FF3F0ED1ADB9306812
:102A40000330FFF7B3F8B07405B0F0BD002DE7D048
:102A500094F82550002DDFD1E2E704F072FFD4E9AD
:102A60001223904271EB0303E8D30122294620464A
:102A7000FFF71CFC68B1FFF77BF8054604F061FF27
:102A80000C4BA5FB03351B1845EB0105C4E91235BA
:102A9000D5E7002DD3D040F6F4117AE7940B00204F
:102AA000092800009523000041240000D6BE898E2D
:102AB0005555550040420F00F7B50446FFF75CFF3F
:102AC00000212046FFF7C6FDA36E0BB101221A605C
:102AD0006388DB0721D50023256A114E05F10A071B
:102AE000CDE90033FF23F3746846FEF73FF9A0B940
:102AF000009CA542F8D03B466A7A04F10A01607A4C
:102B000004F02BFB0028EFD0A378F374D4F8030073
:102B1000044B7061B4F807209A8003B0F0BD00BF89
:102B2000940B0020A80B0020024BD8611B6A1B6885
:102B3000184700BF940B002043881B0710B50446BC
:102B40000ED5036A3C220849723042721B884381C9
:102B5000FF2380F827304FF6FF73038504F0DBFB7B
:102B6000FF2384F8713010BD85730000D773000017
:102B7000B1270000DD73000079250000B92A0000AC
:102B800069230000F92700006C2B0000702B000067
:102B9000782B00000138022808B503D9C3212F2063
:102BA000FDF7E8FC13290A4B05D811290CD8102988
:102BB00007D0D121F3E71529FBD103EB4003D888D7
:102BC00001E033F8100008BD03EB40039889FAE7F1
:102BD0006C450100064B1B68D3F8000138B1D3F8EF
:102BE000040120B1D3F80801B0FA80F04009704721
:102BF00080110020034B00221A705A7010229A7024
:102C0000704700BFD00B0020F8B5064602201446DE
:102C10000D4600F017F9114B114A0127191D5C6090
:102C20009A6002F1807203342D011F70DC601D83F5
:102C3000C3E904260022243303F80A2C0D2203F8EA
:102C4000092C084A1268C2F830150749C2F80875FD
:102C5000C2F8383503C983E80300F8BDD00B002063
:102C60000300000B801100208C45010008B50220F4
:102C700000F0E8F80D4B01221A7000220C4B1B6883
:102C8000C3F80021C3F80421C3F80821094AC3F896
:102C90008020094BC3F88C20084B1B68C3F88C219B
:102CA0000822074BC3F8042508BD00BFD00B002045
:102CB0008011002003000080003008508C1100209B
:102CC00000200450144A08B5137803B3134B196855
:102CD0000023C1F880301249C1F88C3011490968CD
:102CE000C1F88C310821104BC3F80815FFF772FFAB
:102CF00040B101235370938EFF2B05D9BA213B209D
:102D0000FDF738FC102350709370002313700020DF
:102D1000BDE8084000F096B8D00B002080110020DC
:102D2000003008508C110020002004500A4B1A7803
:102D300072B10A4B1B68D3F800215AB1D3F80401D1
:102D400020B1D3F80801B0FA80F04009C0B2704752
:102D50005878704702207047D00B00208011002067
:102D6000064A08B513782BB1FFF734FF20B192F86B
:102D7000340008BD9078FCE71020FAE7D00B002063
:102D80000A4B02211A680023C2F88030084AC2F8B0
:102D90008430084A1268C2F88431074AC2F808151C
:102DA00002F58022C2F80835704700BF8411002068
:102DB000003008508C11002000200450024B0022EB
:102DC0001A705A709A707047080C0020054808B5B0
:102DD00003781BB1FFF7D4FF002303700023437077
:102DE000837008BD080C002038B5074B0024074D40
:102DF0001B68C3F800452B68C3F80045FFF7E6FFE2
:102E00002B68C3F8804038BD841100208011002059
:102E10000A4B1A6813B2002B0DDB01215B0902F08B
:102E20001F02203301FA02F2054941F82320BFF3C3
:102E30004F8FBFF36F8FFFF7D7BF00BF98110020F0
:102E400000E100E010B50446FFF7CEFF012C03D0EF
:102E5000022C07D084B910BD094B02221B68C3F8AD
:102E60000025F8E7074B03221B68C3F8002502F191
:102E70000042C3F88020EEE787213D20FDF77AFB72
:102E80008411002080110020024BD3F8A00300F031
:102E90000100704700C0FF00084BD3F8A423D3F80B
:102EA000A833511C9BB203D14FF6FF718B4203D064
:102EB00002608380012070470020704700C0FF003F
:102EC0000B4B30B5D3F89053D3F89443D3F8981301
:102ED000D3F89C2305EA04030B401340013317BFCA
:102EE00005600020446081601CBFC260012030BDCD
:102EF00000C0FF000B4B30B5D3F88053D3F88443A8
:102F0000D3F88813D3F88C2305EA04030B4013404D
:102F1000013317BF05600020446081601CBFC260A0
:102F2000012030BD00C0FF00024B00221A809A70C1
:102F30001A717047780C002038B5144D03460846C6
:102F400095F83D2022B940F687013E20FDF712FB9F
:102F50006BB9012AAC6B95F83C1005D100F0DAFD95
:102F600020442B6BC01A38BD04F065FCF8E7012B38
:102F70000AD1012AAC6B95F83C1002D100F0BCFDDF
:102F8000EEE704F063FCEBE70020EAE7780C0020B2
:102F900008B50128084B83F82400084B06D0022806
:102FA00008D040F63D513E20FDF7E4FA0322C3F875
:102FB000002508BD0422FAE7780C002000A0085084
:102FC00008B5144B93F84A30D90720D59A070ED587
:102FD000114BD3F8002442F00102C3F80024D3F8C7
:102FE000200500F0F600023818BF012008BD5B077D
:102FF0000DD5094B094AC3F80821A3F5A043D3F81E
:10300000403123B140F276613E20FDF7B3FA012052
:10301000ECE700BF780C002000A008500B000080F7
:1030200007B50B4A01AB92F9252000F0B7FD9DF9D9
:10303000040000F0FFFC9DF8050000F027FE20B121
:1030400040F23F613E20FDF795FA03B05DF804FBC6
:10305000780C002008B503460F4863B92831C160D9
:103060000E4900F0FBFD0130012814D94FF4EB614B
:103070003E20FDF77FFA012B0AD12931C1600749B3
:1030800000F0F2FD0130012805D940F26271EFE74E
:1030900040F26671ECE708BD6C000020BC45010001
:1030A00008B50C4B9B78012B09D100F0E3FD0130F2
:1030B00001280ED940F6D8013E20FDF75BFA022B1D
:1030C00007D100F0DDFD0130012802D940F6DE0114
:1030D000F2E708BD780C00200A4B40F409000A4AC8
:1030E0001B8D40F04000B3F5166F36BFA3F63813C2
:1030F000A3F5166343F48073C2F80837C2F840059D
:10310000704700BF780C002000A0085010B50C4696
:10311000FFF73EFF2046FFF7DFFF0C4B5A78012AEE
:1031200003D12146D878FFF77BFF094BD3F8002461
:1031300042F01002C3F8002440F20312C3F8442EF8
:1031400040F25B62C3F8482E10BD00BF780C00202F
:1031500000A008502DE9F0410D46164607463F4CA9
:1031600000284BD194F826801046FFF711FF404607
:103170004146FFF7B1FF3046FFF752FF384940F2B2
:103180000313384AC1F8443E40F25B63C1F8483E3D
:1031900001232078A370984220D102EB4602938A43
:1031A0004FF47A7203F5FA73B3FBF2F3ED1A216B65
:1031B0002D4B0D442D4AC3F84055C3F8C021237848
:1031C000ABBB94F84A3043F0020384F84A30FFF76F
:1031D000F7FE044690BB4FF4D16125E002EB860276
:1031E000D3694FF47A7203F5FA73B3FBF2F3ED1A75
:1031F0000028DCD11D4BC1F80031D8E7012811D1DE
:1032000094F826101046FFF781FF0223A37023785D
:10321000012BCCD0293D002BC9D1114B134AC3F847
:103220000421C4E740F609013E20FDF7A3F9012B74
:10323000CDD194F84A3043F00403C6E70A4B01228B
:10324000DA64D3F84C359D4206D929463846FFF753
:1032500001FF2046BDE8F0810024FAE7780C002049
:1032600000A00850BC450100005008500B00008031
:1032700008B560220021034804F0E0FCBDE80840E6
:10328000FFF752BE780C0020034B034493F828004C
:1032900000F51660704700BFBC450100094AD2E93D
:1032A0000C3092F83C10C01A074B03EB81031A6DE7
:1032B000DB6D801A4FF47A7203F2F313B3FBF2F36F
:1032C000C01A7047780C0020BC4501000F4A08B5B1
:1032D00092F83C10012906D0022914D040F2A62110
:1032E0003E20FDF747F940F61C40D2E90C239B1A1B
:1032F000074A02EB8102126D9B1A4FF47A72B0FBFF
:10330000F2F0184408BD4FF4AF60EEE7780C0020EF
:10331000BC450100FF2808B504D940F2C2213E2077
:10332000FDF728F9124B0129A3F8480004D002291F
:1033300019D040F20731F2E7002343F4801340F044
:1033400000700C4A43F4847340F44030C2F8203ECD
:10335000C2F8280ED2F8203503F0F703032B05D16D
:1033600040F21D31DBE74FF08073E6E708BD00BF98
:10337000780C002000A00850F8B5234E4FF4806769
:10338000C6F89070BFF34F8FBFF36F8F1F4C0123B0
:103390001F4DC4F8A430C4F8403E85F82430032300
:1033A000C4F800354FF40023C4F80034194B187CDE
:1033B00000F07EFC02F01EFE174B184AC4F83833AA
:1033C000174BC3F8C820013AC3F8C42040F6FE7278
:1033D000144BC4F81433144BC3F804250023AB87F3
:1033E000AB6385F84A3004F01AFB4FF4807328630E
:1033F000C6F89071C4F888342B6E376103B19847D2
:10340000BDE8F84000F01EBC00E100E000A008505C
:10341000780C00206C000020030000800600008073
:10342000005008500100008000200850014B83F834
:1034300025007047780C0020020E034B0002C3F8F1
:10344000342EC3F82C0E704700A00850054A064BD6
:1034500082F82600184490F8283003F51663138587
:10346000704700BF780C0020BC45010010B5044631
:103470000068FFF7E1FF094B6268C3F84C2E207A21
:10348000FFF7E4FF617A6089FFF744FF607AFFF796
:103490007FFD227B024B83F8252010BD00A0085041
:1034A000780C00202DE9F0412B4E05460F4696F88A
:1034B0004A30DA0704D440F29D713E20FDF75AF8F5
:1034C000264C43F00203D4F8002442F00102C4F871
:1034D000002486F84A3078BB96F826800846FFF725
:1034E00057FD40464146FFF7F7FD3846FFF798FD88
:1034F00040F203131A4AC4F8443E40F25B63C4F836
:10350000483E0123B370D3642360154B2846D3F89B
:103510004C452146FFF79EFD306B241ACDB9114969
:1035200001EB87074FF47A71F86900F5FA70B0FB88
:10353000F1F02044BDE8F0810128E6D196F826108C
:103540003846FFF7E3FD0223B370054BDD64656089
:10355000DBE704F12900EDE7780C002000A008501B
:1035600000500850BC45010008B5FFF7F3FD58B9FD
:10357000064B0122C3F8400503F5A04302201A615F
:10358000BDE80840FEF76EBD08BD00BF0050085002
:1035900013B5264B4FF48061254A4FF0FF30D3F826
:1035A0008844C3F89004C2F890114FF400222149D6
:1035B00004F48074C3F80024002281F84A201E49D4
:1035C000C1F84025C3F80821C3F80021C3F804213D
:1035D000D3F82015C9B2D1B18DF80700C3F8202265
:1035E00001221A619DF8072012B1D3F820223AB1C6
:1035F0009DF807305BB940F6C7013E20FCF7BAFFE3
:103600009DF80720013AD2B28DF80720EAE7FFF7CC
:1036100047FD06490023C1F82032FFF785FC1CB1A5
:103620004FF48073C1F8883402B010BD00A0085078
:1036300000E100E0780C00200050085070B5002434
:10364000234D244EC5F84845C5F84445C5F84045C6
:10365000C5F84C45FFF79CFF00F0FAFAC5F8C441E5
:10366000C6F80841C6F80041C6F80441C5F8C8408C
:10367000C5F8C44002F0D6FC174B40F6FE72C6F8FF
:103680003843C6F81443C5F8C041C3F808254FF4C1
:103690008062124B1C77C3E90D44114BC5F84845B5
:1036A000C5F84445C5F84045C5F84C45C5F84841FE
:1036B000C5F84441C5F84041C5F84C41C3F89020D5
:1036C000BFF34F8FBFF36F8FC3F8902170BD00BF62
:1036D0000050085000A0085000200850780C00202E
:1036E00000E100E0014BC3F84C0E704700A0085009
:1036F0000FC810B5014C84E80F0010BDDC0C002091
:1037000008B50A4BC3F8D00E094B93F84A20586409
:1037100042F0010283F84A20FFF752FC20B940F63C
:1037200048113E20FCF726FF08BD00BF00A008504E
:10373000780C002010B50F4C0346022294F83D008F
:103740002277012894F83C1094F824204FF096003A
:103750000CD100F0EDF9084A00232062C2F8443190
:10376000A36B216A0B44C2F8443510BD00F0FAF98E
:10377000F1E700BF780C002000500850044BC3F85C
:10378000940ED3F8002442F04002C3F8002470479E
:1037900000A00850054BD3F8002422F04002C3F8E3
:1037A00000240022C3F8942E704700BF00A00850E8
:1037B00008B50D4B02460846D9700021197082B930
:1037C00001225A709A78022A0DD193F82610FFF739
:1037D00027FC064AD2F8003443F01003C2F8003444
:1037E00001E002225A7008BD780C002000A00850A9
:1037F0002DE9F843834C0123834DB4F84870EB6402
:10380000D5F84C25236BA2EB030804F09AF8C4F812
:103810005880C4E91401FFF743FC7C4A0023C2F836
:103820000831C2F80031C2F80431D2F8001421F096
:103830001D01C2F8001484F84A30237F23B1D5F863
:103840004431003B18BF0123A178012934D1D2F8BB
:103850001832002B0CBF0025082515F00B0F6B4B01
:1038600004D1D3F820220AB145F010050022C3F894
:103870000022C3F81822C3F82022C3F80C22C3F890
:10388000142205F01803102B03D1012908BF45F0BD
:1038900020055D4B0229D3F84825A263D3F84435AF
:1038A00084F83D10636394F824301BD1D3B940F2FF
:1038B00046213E20FCF75EFE022911D1534AD2F880
:1038C0001802D2F80C2E00280CBF00250225D007C4
:1038D00058BF45F00405002BBFD045F00105BCE7FB
:1038E0000025BAE7607884F83C3038B9FFF71CFB54
:1038F0002077E9074BD5636E984757E015F0110F15
:1039000022D1B0F101092379267818BF4FF00109BF
:10391000012B1DD0022B2ED093BB96214846FFF7DA
:103920000BFB0146FFF700FB012E08D108F13B0815
:10393000884528D8344B00222670C3F84021E2780D
:103940004846FFF711FE01E0FFF722FE0020D0E716
:103950002F48FFF78BFD94F83D3013B940F2947176
:10396000A7E7012B04D1FFF7B1FCA1690144D9E716
:10397000FFF794FCF9E72648FFF778FDA169D1E746
:1039800040F6DE2195E7214B30461E61B1E7AA07DC
:103990001FD5636C01465B78BB42A36E88BF45F0C0
:1039A000040585F00405C5F380009847A378022B31
:1039B0000DD1237F5BB1022B134A17D1A36B216A70
:1039C0000B44C2F84435104B124AC3F8C421BDE879
:1039D000F88315F0280F05D085F02001E36EC1F3C0
:1039E0004011E2E7EB06E1D5236F85E7012B02D01A
:1039F00040F607415DE7236AA16B8B42E1D840F6B0
:103A0000084156E7780C00200050085000A00850EC
:103A1000800C002009000080024B03EB8003186D2E
:103A2000704700BFBC450100014B53F820007047B0
:103A3000184601002E3008B5362852D8DFE800F0CD
:103A40004E51515151514B5151515151515151516F
:103A5000515149515151515147514751455143518C
:103A600041513F513D3B392D373533312F2D2B29D6
:103A700027252321571C550039231E4AC2F8103729
:103A800008BD2D23F9E72823F7E72323F5E71F23B4
:103A9000F3E71B23F1E71823EFE71523EDE71323E3
:103AA000EBE71123E9E70F23E7E70D23E5E70B2316
:103AB000E3E70923E1E70823DFE70723DDE7062340
:103AC000DBE70523D9E70423D7E70323D5E7022360
:103AD000D3E70123D1E74FF49873CEE74FF488730F
:103AE000CBE7C1213F20FCF745FD3F23C5E733234A
:103AF000C3E700BF00A00850054B4FF47A720238AC
:103B000033F8113003F2E733B3FBF2F31844704794
:103B100030460100054B4FF47A7233F8113003F54B
:103B20007A73B3FBF2F31844704700BF30460100CC
:103B300038B51D460A4B33F8111003EB82030535E7
:103B40009C684FF47A73214401F6B73103FB0014EB
:103B50001046B4FBF3F42C44FFF75EFF204438BD5D
:103B60003046010070B5064608461546FFF75CFF73
:103B7000094A02EB850293684FF47A7203F6B73371
:103B800002FB06331C1A2846B4FBF2F4FFF744FF8D
:103B90000530204470BD00BF304601002DE9F04FD4
:103BA000264C87B0074698460D46164600F0A0F80A
:103BB00023788146BB4211D16378AB420ED194F990
:103BC0000230B3420AD1E378834207D1A388A8F830
:103BD000003094F9060007B0BDE8F08F7B1EDBB221
:103BE000032B0DD8164A294612F803A00DF117032E
:103BF0003246504600F082F838B13E21A92002E05A
:103C000040F2C6410620FCF7B5FC039028469DF91A
:103C100017B0FFF739FB039A034641465846009216
:103C2000524600F039F8B8F80030A071A380277030
:103C30006570A67084F80390CBE700BF8000002079
:103C400044460100014B1B685B681847AC0000202C
:103C5000014B1B689B681847AC000020014B1B6898
:103C60001B691847AC000020014B1B685B691847B3
:103C7000AC000020014B1B689B691847AC0000207A
:103C8000014B1B68DB691847AC000020014B1B6827
:103C90009B6A1847AC00002030B4044C9DF80850D3
:103CA00024680295E468A44630BC6047AC0000205C
:103CB00000220E4938B50446134644FA02F0D5B244
:103CC0000132C00742BF581CCD54C3B2042AF4D1FC
:103CD000C3F10402042B054D4FF0FF01D2B288BF9F
:103CE0000022E81803F0AAFF2C7138BDE41100206F
:103CF000014B187D704700BFF00C0020042810B560
:103D000011D883B104280CBF10242824A1420AD260
:103D1000064C54F8200018B141568A42A8BF0A4602
:103D200000201A7010BD6FF01500FBE7F00C0020AA
:103D30000728034611DC10F12D0F10DB2E30094A45
:103D400040B2105C02EBC00292F93C209A4207D0CC
:103D5000002918BF0130C0B270471B2070470020F7
:103D6000704700BF48460100072808B507DCFFF789
:103D7000DFFF044B03EBC00393F93C0008BD0820B0
:103D8000FCE700BF4846010038B510F0FF04094DBC
:103D900005D0012C07D05121B52001F0EFFE012301
:103DA000AB602B6038BD02F0D3F80028F3D06C6212
:103DB000F8E700BF00E0105038B510F0FF04194DCF
:103DC00005D0012C1FD08421B52001F0D7FE01239E
:103DD0006B60EB60144BC5F800411C70114CD4F8BB
:103DE0000834DA070ED402F0B3F8A8B1D4F8683476
:103DF000DB0711D40B4B0022C3F81021C3F81821A4
:103E0000C3F8142138BD02F0A3F80028DBD000234A
:103E1000AC62C5F81C31E1E702F09AF80028E9D05D
:103E2000F0E700BF00E01050050D0020014B01221B
:103E30001A707047050D002010B50E4C28B10128EE
:103E40000DD0D021B52001F099FED4F8103123B95E
:103E5000094B187800F0010010BD0120FAE702F0CC
:103E600077F80028EDD0D4F81C01003818BF0120E5
:103E7000F2E700BF00E01050050D0020024BD3F820
:103E8000080400F00100704700E01050024BD3F826
:103E9000480400F00100704700E01050024BD3F8D6
:103EA0004004C0B2704700BF00E01050074902460E
:103EB000D1F84C04D1F84C1410F4803005D0D0B2B5
:103EC00001F003031B1A58425841704700E010509C
:103ED00038B51A4BD3F80C34DA0304D440F2671126
:103EE0006D2001F04BFE164A0124164B106A5366F2
:103EF00020F03F0094645464136CDB03FCD4136A19
:103F0000116C03F03F03C1F30A01C1F5806181EA3E
:103F1000E1750B29A5EBE17509DD3F2B04D00133D9
:103F200003431362172DE6DC0023936438BD0B3185
:103F3000F8DA002BF8D0013BF2E700BF00E01050A8
:103F4000000812500100008038B50B4C23781BB1DB
:103F500000232370FFF7BCFFEFF3108572B6637880
:103F600003F0FF000BB9FFF727FF05B962B6034B5B
:103F700000225A6638BD00BF080D0020000812500C
:103F8000002809DB4309012200F01F00603302FA18
:103F900000F0024A42F82300704700BF00E100E051
:103FA00070B5174D012204460E462B18DA7003F047
:103FB0009BFCA0B934B1012C0FD04FF488716D2057
:103FC00001F0DCFD11232A19012105EB8404517154
:103FD0000C4AA660C2F8043370BD8023F3E7002EBC
:103FE000FAD034B90220B047002305EB8404A36063
:103FF000F2E7012C01D12046F5E740F22B11DEE774
:10400000080D002000E01050044B0022191803EBAB
:1040100080034A719A60CA70704700BF080D002083
:10402000014B1882704700BF080D0020014B988A91
:10403000704700BF080D0020014B188A704700BF71
:10404000080D002010B5EFF3108472B6064B034440
:104050005A780132D2B25A705B78012B01D1FFF746
:1040600093FE04B962B610BD080D0020034610B5DA
:10407000EFF3108472B611490B445A7822B940F21A
:1040800049216D2001F07AFD5A78013AD2B25A7076
:104090005B7883B98B7D43B1094BD3F80C34DB03D8
:1040A00006D44B7803F0FF002BB9FFF785FE02E042
:1040B000C87D01F0FDFE04B962B610BD080D0020F8
:1040C00000E0105010B503F012FC0C4C03F00CFC97
:1040D00060B1237E3BB90A4B01229A6104236376C7
:1040E0000023A37610BD03F005FCF9E703230122AA
:1040F0006376034BC3F80423F2E700BF080D0020EA
:1041000000E01050014B01221A62704700E010508D
:10411000044BD87E28B1044BD3F81001B0FA80F0DC
:1041200040097047080D002000E0105038B50B4BD7
:10413000DD7E3DB1FFF7ECFF78B140F285216D20C7
:1041400001F01CFD0124DC7603F0D1FB044B1022AE
:10415000C3F81051C3F80423DC6138BD080D0020FA
:1041600000E01050024B587E003818BF0120704705
:10417000080D002038B5174CA37D23B94FF43E71CC
:104180006D2001F0FBFC01232370237EC3B9237F44
:10419000B3B1A27E013B9A4212DA03F0A5FB0546B9
:1041A00001F01CFE237F012B82BFA37E0133A37687
:1041B00055B1236AC31A0133022B09D935B12062E4
:1041C000BDE83840FFF77EBF636AF3E76062F7E758
:1041D00038BD00BF080D002037B5184C237E63B9E9
:1041E000A06A00F00300FFF761FE30B1EFF3108327
:1041F00072B6627E1AB103B962B603B030BD012255
:10420000627603B962B608230D4DC5F808334FF442
:104210002073ADF80630BDF806309BB25A1E92B23C
:10422000ADF80620002BF6D1C5F80C3184F82C30FF
:10423000FFF748FF0823C5F80433DEE7080D002028
:1042400000E010502DE9F74F534CA37D002B00F0F8
:10425000A0800023514E8DF8053003238DF80430E3
:10426000D6F80051003D18BF012501F071FE38B1AC
:10427000D6F81C3123B1012345F080058DF80530B7
:10428000D6F80891D6F8143113B9D6F8183153B1CD
:104290000023424AC2F81431C2F81831C2F8103172
:1042A000E37601F019FC3D4BD3F810317BB1E37E8E
:1042B0001BB103F01FFB0023E376637945F0100583
:1042C000002B64D19DF804308DF8043000E0DDB19E
:1042D000334E0027314B0DF1040BA6F10308BA460B
:1042E000C3F8085317F80B00032809D098F80030DA
:1042F00033B1336888F800A013B19847C6F800A01E
:10430000043608F101084FB3B9F1000F08D0234B70
:104310000022C3F808210422C3F80823FFF75CFF3A
:1043200094F82C60EA071D4BF6B2D3F80C7108D54F
:10433000627E032A05D1227E92B90422627601228E
:104340009A61B7B1154B0022C3F80C21637E042B90
:104350000BD040F25B316D2001F010FC0127C1E76A
:1043600003F0C8FA02236376EBE70223637603F0D7
:10437000C1FA76B1002384F82C30637E022B01D180
:10438000FFF7A0FE03B0BDE8F04F03F0B3BA02237D
:104390009AE703B0BDE8F08F080D002000E0105050
:1043A000100D002010B5054CA06A00F00300FFF7C7
:1043B0007DFD0028F8D0002010BD00BF080D0020B2
:1043C0002DE9F041054650B10278022A07D843781A
:1043D0004AB9013B1F2B02D88378212B08D96FF0F3
:1043E0001500BDE8F081002BF9D18378002BF6D1C0
:1043F000794E326813B2002B0DDB01215B0902F00C
:104400001F02203301FA02F2744941F82320BFF35E
:104410004F8FBFF36F8FB6F90000FFF7B1FD704CFF
:104420004FF0FF33C4F8083301F092FD002308B1C8
:10443000C4F81C31C4F80031C4F80831C4F80C3198
:10444000684C6370A370AB88A382FFF717FD10B1AF
:104450000123E3706370624F40F25633D7F80C04C7
:10446000238210F480302AD0FFF7E0FC5E4801F090
:10447000F3FC5B4F6023E0750022C7F804332B7810
:10448000A978012BE276A26223762177A2762ED03C
:10449000022B25D06BBBFFF7F9FC002856D0FFF7A5
:1044A000FDFCA36A03F0030398424FD1AB792BBB09
:1044B000FFF778FF002825DA4FF4A3611BE0C7F867
:1044C0001001FFF761FCD7F81031002BFBD0FFF78C
:1044D000FFFC0020FFF770FC444B00225A66C5E742
:1044E00003F005FAD7F80C34D903FBD50223A362F5
:1044F000D1E740F20A516D2001F040FB384B042215
:10450000C3F80423237F63B12B7853B903F0ECF98C
:10451000054601F063FC6FF00043002D59D0C4E95B
:10452000080300210125B6F900006176A575FFF7A3
:1045300027FD326813B28B4206DB02F01F025B09D3
:104540009540264A42F8235008464AE7244B012268
:1045500000215A61C3F8081194F82810C3F84014D8
:104560001A610422C3F80423AA79002ACAD1D3F815
:104570000423520702D440F2BD41BCE71C4A17692C
:10458000116907F0100741F010011161D3F80831EB
:104590000BB903F0ABFADFF8488001E003F0A4FAAE
:1045A000D8F80831002BF9D0FFF7FCFE002802DA1A
:1045B00040F2D7419FE727B90D4A136923F0100352
:1045C0001361074B0422C3F808230022C3F8082113
:1045D00098E7C4E90830A4E79411002000E100E066
:1045E00000E01050080D0020493F00000008125064
:1045F00000ED00E02DE9F041114E05460F463479FB
:104600001CB18A216F2001F0B9FA03F07AF988B160
:104610002E4496F80580B8F1000F0ED101232846EC
:104620007371FFF70FFD28463946FFF7B9FC404686
:10463000BDE8F0816FF01500FAE72046F8E700BF0B
:10464000380D002070B50D4D04462E791EB1A12104
:104650006F2001F093FA03F054F958B125446879BA
:1046600038B12046FFF7D0FC20466E71FFF7FEFC04
:10467000304670BD6FF01500FBE700BF380D00201D
:1046800008B501B3F0B14FF0FF331A46E0FB013239
:104690000E498A4203D9E2216F2001F06FFA180D0A
:1046A0004FF22441C3F30F1340EA0230B0FBF1F2A2
:1046B00003EB0040064B03FB1200B0FBF1F040EAB5
:1046C0000240013008BD0846FCE700BF3F420F0032
:1046D000000024F4014B9B68184700BF380D0020F0
:1046E000014BDB68184700BF380D0020014B1B69E8
:1046F000184700BF380D002008B5064B1B7923B1C1
:104700004FF49F716F2001F039FABDE80840FFF7C0
:1047100031BD00BF380D0020034B1A790AB9FFF7ED
:1047200085BC988D704700BF380D0020034B1A7967
:104730000AB9FFF781BC988A704700BF380D002086
:10474000024B1B790BB9FFF747BD7047380D0020AE
:10475000014B9B69184700BF380D002038B51D4C30
:10476000237933B3FFF7C2FF50B91B4DC5F81001D1
:10477000FFF7B0FFD5F81031002BFBD0FFF7B0FFEB
:10478000154B6022C3F80423636A9847002806DBB0
:1047900094F82E3023B10123002084F8303038BD46
:1047A000FFF7D6FF0028F6DA4FF4D1716F2001F041
:1047B000E5F90A4BA3610A4BE3610A4B23620A4BFA
:1047C000A3600A4BE3600A4B2361FFF7F9FD002861
:1047D000E1D0E4E7380D002000E01050A5430000D0
:1047E0000179000065410000EF780000F5780000D5
:1047F000FB780000064B10B51C7924B14FF4FB7117
:104800006F2001F0BBF9FFF70BFC204610BD00BF85
:10481000380D0020014B1879704700BF700D002043
:10482000044B1A79824283BF1B68302202FB00309E
:1048300000207047700D0020094A10B592F800332F
:10484000202B03D13E21022001F098F918214B437F
:104850000321D018D3584068BDE81040184700BF66
:10486000780D00200B2808B504D940F243710648A2
:1048700001F07AF90001002300F1A04000F5622068
:10488000C0F82C3508BD00BF6971010038B50B4C6C
:104890004FF4E06300250820C4F83833FFF7E2FF47
:1048A0000920C4F82051FFF7DDFF0A20C4F8245185
:1048B000FFF7D8FFC4F8285138BD00BF00200E50C4
:1048C000084B2022C3F89020BFF34F8FBFF36F8FA8
:1048D000C3F890210122044B5A604FF0FF32C3F815
:1048E0000823704700E100E000500850054BD3F862
:1048F0005007D3F8541711F0404FF8D1C1F313010A
:10490000704700BF00200E5002282DE9F0471746DF
:104910001E469DF820A004D94FF492716E2001F03C
:104920002DF91B4B4FF00108DFF8689000251C5C47
:1049300008FA04F82046C9F83883FFF793FF164BAE
:10494000A2009D50FFF7D2FF874276EB01031DD3F3
:10495000BAF1000F01D0C9F834830B2C04D940F20E
:10496000DB410E4801F000F9B6F5801F02D340F29A
:10497000E141F6E72401012004F1A04404F562249A
:10498000C4F82075C4F82465BDE8F0872846FBE725
:104990006047010000200E5000210E506971010097
:1049A000022813B504D940F2AB116E2001F0E6F8ED
:1049B00048B908494FF00044C1F8A04120240649F5
:1049C000C1F890410C6101210091FFF79DFF02B0F9
:1049D00010BD00BF00200E5000E100E0022810B51D
:1049E00004D94FF4DC716E2001F0C8F8084A08B908
:1049F000C2F8A001074B1C5C0123A3402046A40081
:104A0000C2F83833FFF72EFF034B00221A5110BDB6
:104A100000200E506047010000210E5008B5FFF73E
:104A200035FF024B0022C3F8A02108BD00200E5024
:104A300008B5FFF745FF114BD3F8042522F0030218
:104A4000C3F80425D3F8082542F00302C3F808256B
:104A5000202292FAA2F2B2FA82F2092A04DD4FF47D
:104A60007371074801F080F8C3F810250122DA605D
:104A70004FF00042C3F8802008BD00BF005008502E
:104A80006971010070B5194C2026194AD4F8103507
:104A9000184D03F001031370D4F8103543F00103EF
:104AA000C4F81035FFF7C4FFC5F89C60BFF34F8F03
:104AB000BFF36F8FFFF7EAFE0023C5F89C610E4A33
:104AC000C4F8A0314FF00043C2F88030A2F5802234
:104AD000C2F88031012302F57832C2F80435A2F51C
:104AE0008022C2F80435EE6170BD00BF00200E5078
:104AF000B110002000E100E000400C500B4B10B45E
:104B00001A5C01230A4C9340D4F834130B420BD0A7
:104B10009100084A0A44116831B100211160C4F8BB
:104B2000383310BC00F052BE10BC70476047010023
:104B300000200E5000210E50034BD3F8043313B164
:104B4000072000F043BE7047005008500028ADBF5A
:104B500000F1604000F00F00044B00F56140B4BF6D
:104B6000185C90F800034009704700BF14ED00E0A6
:104B70001822034B50431A181B585068184700BF9F
:104B8000780D0020031F022B0B4B03F8110000D9F6
:104B9000704793F8420083F84210C2B220284FF0C9
:104BA000200016BF03EB420283F84110517003EB63
:104BB00041025070704700BFB8100020F8B50D4694
:104BC00004780AB12021117020261B499C4208D08C
:104BD000202C01D10020F8BD01EB440726467C784B
:104BE000F4E7202CF6D0144B077803EB4401A742DE
:104BF00049781AD10170114F7DB127B1002140F2DF
:104C00009A30AFF300802B78A34206D127B1002160
:104C100040F29D30AFF300802E7027B1002140F2AA
:104C2000A230AFF300800120D5E703EB46035970B3
:104C3000002AE0D01670DEE7B81000200000000067
:104C400010B5074C94F8583023B108F05FFC0023EE
:104C500084F85830034BE26D1B68C3F8182510BD6B
:104C6000B81000209011002010B5074C94F858306F
:104C700023B908F045FC012384F85830034B012286
:104C80001B68C3F8182510BDB81000209011002033
:104C900008B520B9024B0BB1AFF3008062B608BD76
:104CA000000000002DE9F0471C4C4FF020081C4E7E
:104CB00094F841501B4F202D01D1BDE8F08714F826
:104CC0001530013BDBB2052B04D816F80390B9F17F
:104CD000080F04D140F24B61012000F04FFFEFF3C9
:104CE000108A72B60FB1AFF3008004EB4503504653
:104CF0005B7884F8413094F84230AB4208BF84F8C6
:104D00004280FFF7C5FF01232846494604F81530C5
:104D1000FFF72EFF94F84150CDE700BFB8100020F8
:104D20006347010000000000202A70B5054604D149
:104D300040F2F911012000F021FF2029144B14BF8B
:104D400003EB410193F8404003EB420018BF4C785D
:104D500040780CBF83F84000487020460146064664
:104D600003F8105003EB40008A424078F6D193F8E4
:104D7000425003EB410183F84260EAB2202D16BF96
:104D800003EB420283F84140547020224A7070BD08
:104D9000B81000208A4238B505461346084C06D0A4
:104DA0000520FFF7C1FF04EB4504607038BD202AE1
:104DB00016BF04EB420394F840005878F3E700BFB5
:104DC000B810002010B5094CD4E91223B3F1FF3F0D
:104DD00008BFB2F1FF3F07D0FFF782FC4FF0FF3270
:104DE0004FF0FF33C4E9122310BD00BFB8100020FC
:104DF00010B5054C94F850302BB10220FFF7EEFDB2
:104E0000002384F8503010BDB810002010B50F4CAE
:104E1000FFF73EFF24B1002140F2C940AFF300800C
:104E20000B4B93F84130202B09D024B1002140F2E4
:104E3000D140AFF30080074B187801F039F824B166
:104E4000002140F2D640AFF3008010BD000000000A
:104E5000B8100020B010002010B5084CD4E912237F
:104E6000B3F1FF3F08BFB2F1FF3F05D1FFF732FCBE
:104E7000FFF73CFDC4E9120110BD00BFB8100020CF
:104E80002DE9F04F4FF0180EDFF850C106460F46DF
:104E90000EFB03FE8FB00CEB0E0208AC08320FCAFB
:104EA00086420D4684E80F0077EB0103044605D3E4
:104EB0004FF0000948460FB0BDE8F08FF444861B60
:104EC0009CF814A061EB0707FFF730FC00F11C0B06
:104ED000BAF1010F00901BD04149D1E91232A3422F
:104EE00072EB050028D2B4EB030865EB0209FFF76B
:104EF000FDFB3B490246D1E91201B1F1FF3F08BF7A
:104F0000B0F1FF3F67D00192FFF710FC019ABAB1F0
:104F100022462B460020FFF743FD81460028C7D0DC
:104F2000BAF1010F15D05E4577F1000311D2FFF7FA
:104F300093FFFFF75DFF29E04FF00008C146D6E779
:104F4000804579F10003E3D25E4577F10003AFD3EA
:104F5000DEE7FFF737FFBAF1010FEAD05E4577F1E0
:104F60000003E6D3009B0220E21A65F10003FFF77D
:104F700017FD20B94FF41571012000F0FFFD184B0B
:104F800093F8502012B9012283F85020B4F119028D
:104F90004FF0010065F10003FFF702FDC0B1FFF71C
:104FA0004FFE00234FF0FF304FF0FF3102AD8DF880
:104FB0002CA08DF830300B4C0293CDE904010FCDBD
:104FC0000FC40FCD0FC495E80F0084E80F0071E700
:104FD000FFF74AFEE5E7002A9AD1B5E7780D0020F1
:104FE000B81000208010002038B5104B1B78202B03
:104FF0000CD00F4BD3E90645186A6A3445F1000519
:10500000241845F100052046294638BD10F1410419
:10501000137B41F10005012BF5D0FFF767FB00285A
:10502000F1D1FFF783FB0419EBE700BF78100020F4
:10503000801000202DE9F04705460C4617464FF03A
:105040001809DFF83880DFF838A0202C08D009FBD9
:1050500004F6284606F10801414402F080FC10B134
:105060000120BDE8F08746443C706B7B727D9A421C
:10507000F7D90AEB44046478E7E700BF780D002015
:10508000B81000202DE9F0472023DFF848800646BD
:105090000D4617464FF01809DFF83CA098F840403D
:1050A0000B70202C08D12B783A46214630463B70B5
:1050B000BDE8F047FFF7BEBF09FB04A0314608304A
:1050C00002F04DFC0028EED02C7008EB440464780C
:1050D000E7E700BFB8100020780D00202DE9F74F5A
:1050E00087180E4643F10008D1E90023974278EB78
:1050F000030337D3DFF874900DF107020DF10601B9
:105100003046FFF7BFFF70BB9DF807104FF0180A3D
:10511000337B0AFB0191D1E902B508691BF129042F
:1051200045F10005041945F10005012B13D00B7D55
:10513000012B10D1FFF7FAFAA4EB0B0282420ADA34
:105140009DF807300AFB0393D3E90245FFF7EEFA17
:10515000041945F10005A74278EB050302D3C6E91F
:105160000045C9E7002003B0BDE8F08F780D0020AE
:10517000F8B51C4C002542F220031B4A4FF0FF30CB
:105180004FF0FF31194F2E46A4F840302023156010
:1051900084F842303B7082F8285084F8523084F80A
:1051A0005050C2E90201C4E9120104F8156001354A
:1051B000202DFAD10E4884F8586084F8546000F02D
:1051C0004BFE0C4B3D7018700B4B84F858601B68FD
:1051D000D3F81835E365FFF755FC012384F8533005
:1051E000F8BD00BFB810002080100020781000200B
:1051F000A54C0000B0100020901100202DE9F843CC
:10520000FFF774FB05460E46FFF712FCFFF706FC9E
:1052100067484FF0FF334FF0FF32664CC0E902237E
:1052200090F82830F3B9026A40F2F967D0E9063104
:105230001B3341F100019B1802F5DF6241F10001CF
:10524000B2FBF7F29B1841F100019D4276EB01039E
:1052500008D307212078FFF78BFC40F2BD21012005
:1052600000F08CFC2778202F02D140F2C721F6E70E
:1052700020232370504C94F8409084F8523000233F
:10528000B9F1200F03601ED0DFF83081182202FB35
:105290000982937D012B16D1137D012B6FD0FFF76F
:1052A00025FA00286BD1FFF741FA45194FF0180392
:1052B00046F1000603FB0983D3E90201A842B1418C
:1052C00028BFC3E9025694F8543023B1002384F870
:1052D000543002F021FBDFF8E480394E94F840505E
:1052E000202D12D0FFF702FB20224FF0180E0EFBEC
:1052F0000583D3E902C3604571EB030341D2202A41
:1053000003D020210420FFF70FFD0EB1AFF3008082
:10531000FFF7ECFA94F84050202D3AD1FFF752FDF8
:10532000FFF766FDFFF77AFB84F85250FFF788FC21
:1053300014F81730022B0BD1204B1822394602FBF0
:1053400007331B7D022B0CBF01200620FFF71AFC40
:10535000FF2384F8433094F84130202B03D0194BBD
:10536000187800F0A5FD184994F86030D1F8482766
:1053700022F001021343C1F84837BDE8F88329350C
:1053800094E704EB45032A465B78202BB9D01D46F1
:10539000ADE701222B46FFF773FD94F8402020B9BA
:1053A00020210420FFF7C0FC98E784F85220BFE7D3
:1053B0008010002078100020B8100020780D002008
:1053C00000000000B010002000200E50F8B5044688
:1053D0000D46FFF7BDF9002804DA40F253310120F1
:1053E00000F0CCFB00230A4911F81320D8B24AB9C7
:1053F0001822084E5A43B718B45001227D6001F8B4
:105400001320F8BD0133202BEED11846F9E700BF79
:10541000B8100020780D00201F28034609D806493F
:1054200011F810200020012A04D101F813001046C1
:1054300070470020704700BFB81000202DE9F043EE
:10544000037885B004461BB1002005B0BDE8F083A9
:10545000284B5868C0F30800002843D1264D4FF070
:10546000000925B1002140F22240AFF30080DFF8AF
:105470008C8088F8439025B1002140F22640AFF39C
:105480000080FFF733FA6B46224607460E4602F0CD
:1054900086FA25B1002140F22D40AFF300806A4624
:1054A00038463146FFF7A0FD009B3A468342019BF8
:1054B0008B41334638BFCDE9000169464FF0FF30DC
:1054C000FFF70CFEDDE90023C4E9042325B1002128
:1054D00040F23B40AFF3008098F84330002BC0D13E
:1054E0000120B2E71038FFF731FBC0B20028B5D178
:1054F000AAE700BF00ED00E000000000B8100020A7
:10550000714B2DE9F04F0446586889B08946C0F3C5
:10551000080098B11038FFF719FB10F0FF060ED104
:105520006A4B1B78202B04D140F2E641012000F0A9
:1055300025FB0E7856B140F2E941F7E7082699F8C5
:105540000030012B02D940F2ED41EFE7DFF880A1F6
:10555000BAF1000F04D000214FF49E60AFF3008039
:105560004FF0010B5B4DBAF1000F04D0002140F267
:10557000F940AFF300805846FFF78AFB4FF0000375
:1055800085F84330BAF1000F04D0002140F2FD400D
:10559000AFF300800DF11008FFF7A8F94A46434623
:1055A00002F0FDF9BAF1000F04D0002140F20350DF
:1055B000AFF30080EFF31087BB4672B6464B0BB1DA
:1055C000AFF3008095F8433003F0FF02002BCAD1FF
:1055D00015F814300192013B012B08D93846FFF72A
:1055E00057FB019A9146484609B0BDE8F08F0DF18E
:1055F0000F020DF10E014046FFF744FD814648B908
:1056000021460420FFF7BEFA38464FF00109FFF7A4
:10561000FDFBE8E7314B4FF0180C9DF80EA00CFB9A
:10562000043C98E80F000CF1080C8CE80F0086B3DE
:10563000BAF1200F2DD1254B1B78202B29D1284BD7
:105640000BB1AFF30080FFF751F9049A10F11C0C75
:1056500041F100036245059A9A410AD395F8522018
:10566000202A0ED01F4AD2E906E2E64572EB030378
:1056700007D221460420FFF785FA3846FFF7C6FB1C
:10568000B1E723460222FFF7FBFB0028F1D085F8A3
:1056900052409DF80F2020469DF80E10FFF77AFB30
:1056A000BAF1200F17BF9DF80E3085F8404005EB8A
:1056B00043035C70032305F81430002EDDD1FF2373
:1056C00085F84330D9E700BF00ED00E078100020F6
:1056D00000000000B810002000000000780D00203D
:1056E00000000000801000202DE9F843314F0446EF
:1056F00027B1002140F26B50AFF30080EFF3108828
:1057000072B62D4B0BB1AFF300802C4D15F8143051
:10571000032B06D000264046FFF7BAFA3046BDE814
:10572000F88395F84030A34215D1254B1B78202BE8
:1057300011D105EB4403660093F80190B9F1200FF5
:1057400014D1FFF73FFBFFF753FBFFF767F985F82D
:105750005290FFF775FA002223461A481146FFF7C8
:105760002DFA0646B8B940F2A5510DE0164B0BB123
:10577000AFF300802E44FFF7B9F802227378FFF7E9
:105780007FFB20B940F29A51012000F0F7F97378BD
:1057900085F85230DFE70123404605F81430FFF763
:1057A00077FA002FBAD0002140F2AB50AFF300805F
:1057B000B4E700BF0000000000000000B8100020A7
:1057C00078100020F81000200000000070B586B0AE
:1057D000072870D8DFE800F00486716F6F6F6F8B59
:1057E0004C4C4D4DD4E91223B3F1FF3F08BFB2F149
:1057F000FF3F05D1FEF76EFFD5E90623C4E912236A
:10580000464E3378202B24D1454BD3F8482702F05D
:10581000010284F86020D3F8482742F00102C3F85F
:10582000482794F84030202B04D140F26721012012
:1058300000F0A4F904EB4302527884F84020FF22E0
:1058400084F843200222337004F81320002385F8E3
:105850002830FEF74BFF95F82430012B1ED0E8B915
:1058600002F05CF850B994F861300133DBB2312BAF
:1058700084F861303DD940F2EF51D8E70021182279
:10588000684602F0DBF94FF47A7369463078019389
:10589000FFF736FE30B940F22161C8E7002384F8F3
:1058A000613030E095F82840012385F82830FFF773
:1058B000A5FC85F8284006B070BD164C94F8503011
:1058C0002BB1FFF7C9FA002384F85030F3E74FF00B
:1058D000FF31114B4FF0FF30C3E9020105210F4B9F
:1058E000187812E006B0BDE87040FFF7BDB904219A
:1058F000F5E70C4BD3F80031002BBFD0012384F81F
:10590000543002F007F80021307806B0BDE870404E
:10591000FFF72EB9B810002080100020781000206A
:1059200000200E5000E01050134B10B51A78202ABA
:1059300004D140F2F961012000F020F90F49D1E9CA
:105940000243B3F1FF3F08BFB4F1FF3F02D040F282
:10595000FA61F0E718240A4B04FB0233D3E902236F
:10596000BDE8104082184FF0020043F10003C1E986
:105970000223FFF715B800BF781000208010002028
:10598000780D00202DE9F74FDFF8A4A006469AF81D
:105990000030202B04D140F23971012000F0EEF8E4
:1059A000182841D9234D00234FF0FF392F6A3A18A8
:1059B00043EB03009145834136D3DFF87C8098F8B0
:1059C000544084B94FF0200B2A6285F825100DF160
:1059D000070298F8401005F118008DF807B0FFF79E
:1059E00029FB10B92F6202201FE00220FEF7F6FF0C
:1059F0004FF0FF334FF0FF329AF800005946C5E9E7
:105A000002239DF80720FFF7C5F928683044286075
:105A100088F843909DF80730202B03D0074B187867
:105A200000F046FA204600E0012003B0BDE8F08F08
:105A30007810002080100020B8100020B010002046
:105A4000F8B5214E044616F8103023B940F2AC7177
:105A5000012000F093F81D4D25B1002140F2B370F4
:105A6000AFF30080012716F81430012B16D1EFF3A5
:105A7000108672B6164B0BB1AFF300801549234662
:105A80000022481EFFF79AF83046FFF701F925B1CA
:105A9000002140F2CC70AFF30080F8BD043B022B34
:105AA00009D806F81470002DDDD0002140F2C37033
:105AB000AFF30080D7E725B1002140F2BF70AFF30C
:105AC000008002F011F8EEE7B8100020000000009E
:105AD00000000000FA10002010B5EFF3108472B639
:105AE000094B0BB1AFF30080084B1B78202B08D07B
:105AF000074B012283F854202046BDE81040FFF7F1
:105B0000C7B801F009FFF7E7000000007810002097
:105B1000B8100020BFF34F8F0549064BCA6802F446
:105B2000E0621343CB60BFF34F8F00BFFDE700BFC0
:105B300000ED00E00400FA05094B01221B685A60E1
:105B40004FF0FF32C3F808234FF40062054BC3F84F
:105B50008820BFF34F8FBFF36F8FC3F88821704742
:105B60008811002000E100E008B572B6024B5B68C6
:105B700003B19847FFF7CEFF1C1100201FB572B686
:105B8000134B5D688DB9FFF7C5FFB4FBF6F4D3B2D4
:105B90000132002CF9D103F110026A4402F80C4CD6
:105BA0000A2233B901A8A847EDE7044600220A26D5
:105BB000EDE7013BDBB203F110040DEB0406B0FB93
:105BC000F2F402FB1400303006F80C0C2046E8E733
:105BD0001C110020F8B5244F05460C4616463B78AC
:105BE000002B3DD100F0CCF900F0A6F918B1A021AE
:105BF0001120FFF7C3FF01F076FE7E601B4B0126EC
:105C00003C814FF48062C3F8A460194BC3F8902024
:105C1000BFF34F8FBFF36F8F1648C3F89021002D4D
:105C200018BF2846FFF788FFFEF798FD0546A8B97C
:105C3000FFF79EFAFEF784FD01F072FE002C0BDBED
:105C400004F01F036409A4009E4004F1604404F5BD
:105C50006144C4F88061266001233B702846F8BD8A
:105C60004FF0FF35FAE700BF1C11002000A00850DC
:105C700000E100E06A470100074BB3F90830002B50
:105C800009DB5A09012103F01F03403201FA03F333
:105C9000024941F8223070471C11002000E100E069
:105CA000014B1878704700BF1C1100202DE9F74FF9
